:1000000017C031C030C02FC02EC08BC12CC02BC038
:100010002AC029C028C027C026C025C024C0B3C11B
:10002000B9C1DEC16CC29EC2B9C2D9C24AC22AC21B
:1000300011241FBECFE5D1E0DEBFCDBF10E0A0E6AA
:10004000B0E0E2EAFEE002C005900D92A836B107EA
:10005000D9F710E0A8E6B0E001C01D92A33DB107BA
:10006000E1F7E7D51CC7CCCF09C020E030E0B59A56
:100070002F5F3F4F29303105D1F701970097A9F73E
:10008000089589B7826089BF089589B78D7F89BF38
:1000900008952CB520612CBD6AE070E0D7D6CB0165
:1000A000E3DF08952CB52F7E2CBD6AE070E0CED63C
:1000B000CB01DADF089581E080BF80E58CBD82ED61
:1000C0008DBD86E48BBD0895282F80916100882323
:1000D00009F180916C00281738F4822F65E096D6DC
:1000E000992311F4C29801C0C29A80916D0028171B
:1000F00038F4822F65E08AD6992311F4C19801C0A3
:10010000C19A80916E00281720F420FD02C0C0988B
:100110000895C09A0895DF92EF92FF920F931F9374
:100120007B018C0188E293E2B4DF84E991E1BADFDC
:10013000DD24C70181709070892B31F080E392E05B
:10014000A8DF80E496E005C080E392E0A2DF80E3D0
:1001500092E0A8DFD39480E2D81629F0169507958F
:10016000F794E794E6CF80E392E093DF80E090E0BD
:1001700099DF1F910F91FF90EF90DF9008951ABCC7
:1001800083B78B7F83BF83B7826083BF83B78E7F44
:1001900083BF89B7826089BF83ED82BF789481E095
:1001A0008093770010927800109283001092840060
:1001B000109285001092860010927A0010927B00B7
:1001C00008952F923F924F925F926F927F928F92FB
:1001D0009F92AF92BF92CF92DF92EF92FF920F93D6
:1001E0001F93CF93DF93EC013B012A01222E3E2C7B
:1001F000002331F4FA01E082FB01E082E8827EC054
:10020000822F68E203D6892F90E06FEF70E0ECD583
:1002100068E270E01BD69B01E02FF0E000E011E007
:10022000C8018E1B9F0B6E2D70E0DED560E071E083
:100230000DD66B01EE24D7FCE094FE2CC901BF0162
:10024000D3D560E071E002D6CB01909581959F4FA8
:1002500080509F4F632D70E0C7D560E071E0F6D508
:100260004B01AA2497FCA094BA2CC801821B930BC3
:10027000BF01BAD560E071E0E9D5CB0190958195D9
:100280009F4F80509F4F632D70E0AED560E071E0CE
:10029000DDD59B01442737FD4095542F822D68E220
:1002A000B5D58230B1F0833028F4882341F0813015
:1002B00001F509C0833099F08430D9F414C0388234
:1002C000F301208303C08882F3013082F201C082EF
:1002D00015C0C882F3013082F20120830FC0C882AA
:1002E000F301808203C02883F301C082F2013082CF
:1002F00005C03882F301C082F2018082DF91CF9184
:100300001F910F91FF90EF90DF90CF90BF90AF9033
:100310009F908F907F906F905F904F903F902F9025
:1003200008951F920F920FB60F9211242F933F93AF
:100330004F935F936F937F938F939F93AF93BF93ED
:10034000EF93FF9383ED82BF809168008F5F80936E
:10035000680080916800B8DE86B390E08870907085
:1003600043E0959587954A95E1F7809379008091D0
:10037000770090E0FC013197E930F10508F068C1A1
:10038000E15FFF4F099480917900882309F060C1F3
:1003900082E015C0809179008130C1F480917D00A8
:1003A00090917E008738910508F44FC180917D00BF
:1003B00090917E00823E910508F047C183E08093D2
:1003C000770010927E0010927D0042C180917D00E6
:1003D00090917E00019690937E0080937D0038C1BD
:1003E000809179008823E1F580917D0090917E00D5
:1003F0008334910528F180917D0090917E008137B2
:100400009105F0F488E08093770010927E001092BE
:100410007D001092780081E090E0A0E0B0E0809351
:100420007F0090938000A0938100B093820010928F
:10043000830010928400109285001092860008C1FB
:1004400080917D0090917E00809708F4FEC080919D
:100450007D0090917E00C69708F0F7C089E0AFCF8D
:1004600080917D0090917E00019690937E00809314
:100470007D0080917D0090917E008037910508F489
:10048000E7C0E3C080917D0090917E00019690933B
:100490007E0080937D0020917900213009F0D8C042
:1004A00080917D0090917E00079708F4CEC08091E6
:1004B0007D0090917E00429708F0C7C0209377009E
:1004C000C7C080917D0090917E00019690937E0040
:1004D00080937D0080917900813009F0B9C08091CE
:1004E0007D0090917E00079708F4AFC080917D0059
:1004F00090917E00429708F0A8C084E060CF809180
:100500007D0090917E00019690937E0080937D0007
:10051000809179008823F1F480917D0090917E0094
:10052000489740F080917D0090917E00899710F46B
:1005300085E045CF80917D0090917E00049708F47E
:1005400084C080917D0090917E000E9708F07DC060
:1005500086E035CF80917D0090917E00899708F4E8
:1005600077C073C020918300309184004091850052
:100570005091860080917F0090918000A091810031
:10058000B0918200822B932BA42BB52B80938300F8
:1005900090938400A0938500B093860080917F00A3
:1005A00090918000A0918100B0918200880F991FE6
:1005B000AA1FBB1F80937F0090938000A0938100AF
:1005C000B0938200809178008F5F80937800809153
:1005D0007800803210F488E039C087E037C080911D
:1005E0007D0090917E00019690937E0080937D0027
:1005F00080917900813061F580917D0090917E003D
:10060000079718F180917D0090917E004297E8F461
:10061000E0917A00F0E08091830090918400A091B5
:100620008500B0918600EE0FFF1FEE0FFF1FE95708
:10063000FF4F80839183A283B38380917A0090E0FF
:1006400001968370907080937A0081E080937700A8
:10065000FF91EF91BF91AF919F918F917F916F919A
:100660005F914F913F912F910F900FBE0F901F9070
:100670001895EF92FF920F931F93082F10E0EE242E
:10068000E39454E0F52E00FF0DC088B3876088BB6B
:1006900088B38F2588BB80E29EE4E6DC88B3876060
:1006A00088BB0AC088B3876088BB88B38E2588BBA7
:1006B00080E29EE4D9DCC09A80E593ECD5DC1F5F34
:1006C000183011F00695DFCF1F910F91FF90EF903A
:1006D0000895482F2091720030917300E7E9F0E00F
:1006E0008081841759F4818192814E9628173907A9
:1006F00010F480E00895108212821182339680E017
:10070000E33DF80769F781E00895E7E9F0E010823A
:1007100012821182339680E0E33DF807C1F7089515
:100720000F931F9310916000112309F411E000E072
:100730001F5F0F5F113F08F011E0812F90E099D308
:10074000053010F48F3FA1F3882391F310936000DC
:1007500081508E3F10F010916B00812F1F910F91EF
:1007600008951F9388B314E0812788BB80E197E246
:100770007BDC88B3812788BB84E690E075DC88B396
:1007800012E0812788BB80E197E26EDC88B3812785
:1007900088BB84E690E068DC88B311E0812788BBE1
:1007A00080E197E261DC88B3812788BB84E690E032
:1007B0005BDC80E090E06FEF64D3109363001093F4
:1007C00061001F910895EF920F939C018091710039
:1007D000853021F4C6DF109271005CC08091630007
:1007E0008430C9F4C9016AE070E030D3069714F48C
:1007F00081E501C080E080936B0080917200909150
:1008000073002091750030917600821B930B4F97F7
:1008100048F183E01BC0833029F4809172008095F9
:1008200081701EC0873011F47BDF1AC08130D1F493
:1008300080E090E01ED3982F81508E3F50F490932B
:100840006200892F90E061E01CD387E08093630011
:1008500009C080916B0090E0079660EF70E0F6D2DF
:1008600080936B0020916B00222349F48CE690E08A
:100870006DE670E04EE650E000E0EE240AC0215044
:100880008CE690E06DE670E04EE650E00FEFEE246F
:10089000EA9497DC0F91EF9008951F93182F90E042
:1008A000E8D2682F8F3F21F4812F90E061E005C0EE
:1008B0008E3F20F46F5F812F90E0E3D21F91089567
:1008C0001F93182F06DF882321F120917000822FBB
:1008D00090E063E070E088D2FC01E956FF4F10839E
:1008E000822F90E063E070E07FD2FC01E956FF4F79
:1008F000809172009091730092838183812FCDDF6C
:100900008091700090E0019664E170E09FD2809346
:1009100070001F910895CF92DF92EF92FF920F9394
:100920001F936B01E82E81508E3F08F041C08E2D41
:10093000D0DE882311F08E2DC3DFB60180916300D5
:10094000813019F47930A1F525C0863019F4C092B0
:100950006B002EC07330B1F480917400843070F05D
:1009600084E08093630010927400809172009091F3
:10097000730090937600809375001AC08F5F809308
:10098000740016C07530A1F0783021F485E08093B2
:1009900063000EC0793031F4813051F480E090E092
:1009A00070D206C0773021F4843011F47093630064
:1009B0001F910F91FF90EF90DF90CF900895BF921D
:1009C000CF92DF92EF92FF920F931F93CF93DF931B
:1009D000C0E0D0E0B5E0BB2EA4E0FA2EEE24E39414
:1009E00002E0F7E0DF2EE6E0CE2EFE01EE0FFF1F65
:1009F000EE0FFF1FE957FF4F80819181A281B381E4
:100A00000097A105B10509F405C180819181A281FA
:100A1000B38180709070A07080509040A040BB4B1C
:100A200031F4608171818281938175DFE8C08081BA
:100A30009181A281B381B0708E5E9748A840B0408A
:100A4000A1F480916300813009F4D7C080E090E088
:100A500060916B0016D288B3802788BB80E197E253
:100A600003DB88B3802788BBC8C080819181A281C5
:100A7000B381B0708E5E9748A740B04051F4E092C9
:100A8000610080916300813009F4B7C0C0926300B7
:100A9000B4C080819181A281B381B0708E5E97488D
:100AA000AB40B04081F480917100833009F479C08B
:100AB0001092710090E080916100882309F491E028
:100AC000909361009CC080819181A281B381B070BC
:100AD0008E5E9748AD40B040D1F480917100823075
:100AE00009F45FC080916300813009F486C088B347
:100AF000802788BB80E197E2B7DA88B3802788BB7C
:100B0000E0926100D092630010926B0076C0808109
:100B10009181A281B381B0708E5E9748A440B040AD
:100B200009F05FC0109163001130A9F580E090E0FA
:100B300060916B00A6D188B3812788BB80E197E2E2
:100B400093DA88B3812788BB88EE93E08DDA88B387
:100B5000802788BB80E197E287DA88B3802788BB4B
:100B600088EE93E081DA88B3812788BB80E197E241
:100B70007BDA88B3812788BB88EE93E075DA88B387
:100B8000802788BB80E197E26FDA88B3802788BB33
:100B900088EE93E069DA80917100823010F0843041
:100BA00079F488B38F2588BB80E197E25DDA88B35A
:100BB0008F2588BB809171008F5F809371001FC06B
:100BC000809163008130D9F0F0926300E09261007F
:100BD00080917200909173009093760080937500DD
:100BE0000CC080819181A281B381B0708E5E9748E4
:100BF000A240B04021F4B092630010927100FE0157
:100C0000EE0FFF1FEE0FFF1FE957FF4F10821182FB
:100C1000128213822196C430D10509F0E6CEDF910D
:100C2000CF911F910F91FF90EF90DF90CF90BF90E9
:100C300008959F92AF92BF92CF92DF92EF92FF9270
:100C40000F931F93CF93DF931ABC13BE10BE1CBC2F
:100C500087E187BB8FEE88BB7894E7E9F0E01082EC
:100C600012821182339680E0E33DF807C1F7DD245C
:100C7000D394F0E59F2EE2EDAE2E76E4B72E67E03A
:100C8000C62E80917200909173006EE170E0CAD020
:100C9000892B11F41092710089B78D7F89BFD0BE66
:100CA0009CBCADBCBBBC80916300853009F04FC0DB
:100CB000C09263006091620070E080E090E0CB0140
:100CC00077276627616075609B6B25DA80E197E284
:100CD000CBD941E0E42EF12C012D112D88B38D25C7
:100CE00088BB80E197E2C0D988B38D2588BBC70156
:100CF000C0D0682F81508E3F80F470E080E090E09B
:100D00009B6B502F4F2D3E2D2227622B732B842B54
:100D1000952B01DA88EE93E0A7D90894E11CF11C29
:100D2000011D111D8FEFE816F10401051105B1F643
:100D30006091620070E080E090E0CB017727662749
:100D40006F6F75609B6BE7D988EE93E08DD920912A
:100D50006200E091630060916B00E130D9F070E0D7
:100D600080E090E09B6B30E040E050E0A901332749
:100D70002227622B732B842B952B2E2F30E040E003
:100D800050E0542F432F322F2227622B732B842BBA
:100D9000952BC1D9F4D989B7826089BFC0E0D0E072
:100DA00000E010E00CDEC80169E470E04FD0892B50
:100DB00019F4CE0108DD21968091620090E08F70D9
:100DC0009070845A9F4F50D90F5F1F4F82E00A3DA9
:100DD000180741F7809172009091730001969093EB
:100DE0007300809372004DCF5527002480FF02C00E
:100DF000060E571F660F771F6115710521F0969536
:100E00008795009799F7952F802D0895991B79E084
:100E100004C0991F961708F0961B881F7A95C9F78A
:100E200080950895AA1BBB1B51E107C0AA1FBB1FD9
:100E3000A617B70710F0A61BB70B881F991F5A9566
:100E4000A9F780959095BC01CD01089597FB092ED7
:100E500007260AD077FD04D0E5DF06D000201AF47B
:100E6000709561957F4F0895F6F7909581959F4F06
:100E70000895E199FECF1FBA8EBBE09A99278DB3F2
:100E80000895262FE199FECF1CBA1FBA8EBB2DBB49
:100E90000FB6F894E29AE19A0FBE01960895F8947D
:020EA000FFCF82
:080EA2000101FF010151A10053
:00000001FF
