:1000000017C031C030C02FC02EC08BC12CC02BC038
:100010002AC029C028C027C026C025C024C0B3C11B
:10002000B9C1DEC16CC29EC2B9C2D9C24AC22AC21B
:1000300011241FBECFE5D1E0DEBFCDBF10E0A0E6AA
:10004000B0E0E2EAFDE002C005900D92A836B107EB
:10005000D9F710E0A8E6B0E001C01D92A33DB107BA
:10006000E1F773D59CC6CCCF09C020E030E0B59A4B
:100070002F5F3F4F29303105D1F701970097A9F73E
:10008000089589B7826089BF089589B78D7F89BF38
:1000900008952CB520612CBD6AE070E057D6CB01E5
:1000A000E3DF08952CB52F7E2CBD6AE070E04ED6BC
:1000B000CB01DADF089581E080BF80E58CBD82ED61
:1000C0008DBD86E48BBD0895282F80916100882323
:1000D00009F180916C00281738F4822F65E016D65C
:1000E000992311F4C29801C0C29A80916D0028171B
:1000F00038F4822F65E00AD6992311F4C19801C023
:10010000C19A80916E00281720F420FD02C0C0988B
:100110000895C09A0895DF92EF92FF920F931F9374
:100120007B018C0188E293E2B4DF84E991E1BADFDC
:10013000DD24C70181709070892B31F080E392E05B
:10014000A8DF80E496E005C080E392E0A2DF80E3D0
:1001500092E0A8DFD39480E2D81629F0169507958F
:10016000F794E794E6CF80E392E093DF80E090E0BD
:1001700099DF1F910F91FF90EF90DF9008951ABCC7
:1001800083B78B7F83BF83B7826083BF83B78E7F44
:1001900083BF89B7826089BF83ED82BF789481E095
:1001A0008093770010927800109283001092840060
:1001B000109285001092860010927A0010927B00B7
:1001C00008952F923F924F925F926F927F928F92FB
:1001D0009F92AF92BF92CF92DF92EF92FF920F93D6
:1001E0001F93CF93DF93EC013B012A01222E3E2C7B
:1001F000002331F4FA01E082FB01E082E8827EC054
:10020000822F68E283D5892F90E06FEF70E06CD584
:1002100068E270E09BD59B01E02FF0E000E011E088
:10022000C8018E1B9F0B6E2D70E05ED560E071E003
:100230008DD56B01EE24D7FCE094FE2CC901BF01E3
:1002400053D560E071E082D5CB01909581959F4FA9
:1002500080509F4F632D70E047D560E071E076D508
:100260004B01AA2497FCA094BA2CC801821B930BC3
:10027000BF013AD560E071E069D5CB0190958195D9
:100280009F4F80509F4F632D70E02ED560E071E04E
:100290005DD59B01442737FD4095542F822D68E2A0
:1002A00035D58230B1F0833028F4882341F0813095
:1002B00001F509C0833099F08430D9F414C0388234
:1002C000F301208303C08882F3013082F201C082EF
:1002D00015C0C882F3013082F20120830FC0C882AA
:1002E000F301808203C02883F301C082F2013082CF
:1002F00005C03882F301C082F2018082DF91CF9184
:100300001F910F91FF90EF90DF90CF90BF90AF9033
:100310009F908F907F906F905F904F903F902F9025
:1003200008951F920F920FB60F9211242F933F93AF
:100330004F935F936F937F938F939F93AF93BF93ED
:10034000EF93FF9383ED82BF809168008F5F80936E
:10035000680080916800B8DE86B390E08870907085
:1003600043E0959587954A95E1F7809379008091D0
:10037000770090E0FC013197E930F10508F068C1A1
:10038000E15FFF4F099480917900882309F060C1F3
:1003900082E015C0809179008130C1F480917D00A8
:1003A00090917E008738910508F44FC180917D00BF
:1003B00090917E00823E910508F047C183E08093D2
:1003C000770010927E0010927D0042C180917D00E6
:1003D00090917E00019690937E0080937D0038C1BD
:1003E000809179008823E1F580917D0090917E00D5
:1003F0008334910528F180917D0090917E008137B2
:100400009105F0F488E08093770010927E001092BE
:100410007D001092780081E090E0A0E0B0E0809351
:100420007F0090938000A0938100B093820010928F
:10043000830010928400109285001092860008C1FB
:1004400080917D0090917E00809708F4FEC080919D
:100450007D0090917E00C69708F0F7C089E0AFCF8D
:1004600080917D0090917E00019690937E00809314
:100470007D0080917D0090917E008037910508F489
:10048000E7C0E3C080917D0090917E00019690933B
:100490007E0080937D0020917900213009F0D8C042
:1004A00080917D0090917E00079708F4CEC08091E6
:1004B0007D0090917E00429708F0C7C0209377009E
:1004C000C7C080917D0090917E00019690937E0040
:1004D00080937D0080917900813009F0B9C08091CE
:1004E0007D0090917E00079708F4AFC080917D0059
:1004F00090917E00429708F0A8C084E060CF809180
:100500007D0090917E00019690937E0080937D0007
:10051000809179008823F1F480917D0090917E0094
:10052000489740F080917D0090917E00899710F46B
:1005300085E045CF80917D0090917E00049708F47E
:1005400084C080917D0090917E000E9708F07DC060
:1005500086E035CF80917D0090917E00899708F4E8
:1005600077C073C020918300309184004091850052
:100570005091860080917F0090918000A091810031
:10058000B0918200822B932BA42BB52B80938300F8
:1005900090938400A0938500B093860080917F00A3
:1005A00090918000A0918100B0918200880F991FE6
:1005B000AA1FBB1F80937F0090938000A0938100AF
:1005C000B0938200809178008F5F80937800809153
:1005D0007800803210F488E039C087E037C080911D
:1005E0007D0090917E00019690937E0080937D0027
:1005F00080917900813061F580917D0090917E003D
:10060000079718F180917D0090917E004297E8F461
:10061000E0917A00F0E08091830090918400A091B5
:100620008500B0918600EE0FFF1FEE0FFF1FE95708
:10063000FF4F80839183A283B38380917A0090E0FF
:1006400001968370907080937A0081E080937700A8
:10065000FF91EF91BF91AF919F918F917F916F919A
:100660005F914F913F912F910F900FBE0F901F9070
:100670001895EF92FF920F931F93082F10E0EE242E
:10068000E39454E0F52E00FF0DC088B3876088BB6B
:1006900088B38F2588BB80E29EE4E6DC88B3876060
:1006A00088BB0AC088B3876088BB88B38E2588BBA7
:1006B00080E29EE4D9DCC09A80E593ECD5DC1F5F34
:1006C000183011F00695DFCF1F910F91FF90EF903A
:1006D0000895482F2091720030917300E7E9F0E00F
:1006E0008081841759F4818192814E9628173907A9
:1006F00010F480E00895108212821182339680E017
:10070000E33DF80769F781E00895E7E9F0E010823A
:1007100012821182339680E0E33DF807C1F7089515
:100720000F931F9310916000112309F411E000E072
:100730001F5F0F5F113F08F011E0812F90E019D388
:10074000053010F48F3FA1F3882391F310936000DC
:1007500081508E3F10F010916B00812F1F910F91EF
:10076000089580E090E06FEF0CD381E08093630008
:10077000809361000895EF920F938091710085300E
:1007800021F4EFDF1092710059C080916300843032
:10079000B1F4209172003091730020FD02C081E518
:1007A00001C081E080936B0080917500909176008C
:1007B000281B390B2F31310548F183E01BC08330F2
:1007C00029F480917200809581701EC0873011F4E9
:1007D000A7DF1AC08130D1F480E090E0CAD2982F10
:1007E00081508E3F50F490936200892F90E061E039
:1007F000C8D287E08093630009C080916B0090E0CD
:10080000019660EF70E0A2D280936B0020916B00A4
:10081000222349F48CE690E06DE670E04EE650E06D
:1008200000E0EE240AC021508CE690E06DE670E016
:100830004EE650E00FEFEE24EA94C3DC0F91EF9008
:1008400008951F93182F90E094D2682F8F3F21F4C2
:10085000812F90E061E005C08E3F20F46F5F812F13
:1008600090E08FD21F9108951F93182F32DF8823B5
:1008700021F120917000822F90E063E070E034D28B
:10088000FC01E956FF4F1083822F90E063E070E097
:100890002BD2FC01E956FF4F8091720090917300BA
:1008A00092838183812FCDDF8091700090E001964B
:1008B00064E170E04BD2809370001F910895CF9255
:1008C000DF92EF92FF920F931F936B01E82E8150FE
:1008D0008E3F08F041C08E2DFCDE882311F08E2D56
:1008E000C3DFB60180916300813019F47930A1F53E
:1008F00025C0863019F4C0926B002EC07330B1F45D
:1009000080917400843070F084E0809363001092D2
:1009100074008091720090917300909376008093A0
:1009200075001AC08F5F8093740016C07530A1F0F7
:10093000783021F485E0809363000EC0793031F483
:10094000813051F480E090E01CD206C0773021F471
:10095000843011F4709363001F910F91FF90EF901A
:10096000DF90CF900895CF92DF92EF92FF920F9396
:100970001F93CF93DF93C0E0D0E0A5E0CA2E14E030
:10098000FF24F39402E0F7E0EF2EE6E0DE2EFE0116
:10099000EE0FFF1FEE0FFF1FE957FF4F8081918180
:1009A000A281B3810097A105B10509F4C0C080817F
:1009B0009181A281B381B0708E5E9748A840B0400B
:1009C000B9F480916300813079F480E090E0609127
:1009D0006B00D7D188B3802788BB84E690E044DBE6
:1009E00088B3802788BB98C08091620042DE94C0A3
:1009F00080819181A281B381B0708E5E9748A740BB
:100A0000B04029F4F0926100D092630085C08081EB
:100A10009181A281B381B0708E5E9748AB40B040A7
:100A200079F4809171008330D9F01092710090E0D8
:100A300080916100882309F491E0909361006CC07B
:100A400080819181A281B381B0708E5E9748AD4064
:100A5000B04029F580917100823089F410926100D4
:100A600088B3812788BB84E690E0FEDA88B38127CB
:100A700088BB809171008F5F809371004DC088B3F7
:100A8000802788BB84E690E0EFDA88B3802788BBB4
:100A9000F0926100E092630010926B0029C08081A7
:100AA0009181A281B381B0708E5E9748A440B0401E
:100AB00099F480917100823088F2843079F2109339
:100AC0006300F092610080917200909173009093A6
:100AD0007600809375000CC080819181A281B381E2
:100AE000B0708E5E9748A240B04029F4C092630077
:100AF0001092710011C080819181A281B3818070B8
:100B00009070A07080509040A040BB4B29F4608151
:100B1000718182819381D3DEFE01EE0FFF1FEE0F04
:100B2000FF1FE957FF4F1082118212821382219614
:100B3000C430D10509F02BCFDF91CF911F910F91D8
:100B4000FF90EF90DF90CF9008959F92AF92BF9269
:100B5000CF92DF92EF92FF920F931F93CF93DF9389
:100B60001ABC13BE10BE1CBC87E187BB8FEE88BBCE
:100B70007894E7E9F0E0108212821182339680E0E7
:100B8000E33DF807C1F799249394E0E5AE2E72EDAA
:100B9000B72E66E4C62E57E0D52E80917200909154
:100BA00073006EE170E0BED0892B11F410927100D9
:100BB00089B78D7F89BF90BEACBCBDBCCBBC8091DA
:100BC0006300853009F046C0D092630060916200F6
:100BD00070E080E090E0CB01772766276160756068
:100BE0009B6B99DA80E197E23FDA31E0E32EF12C5A
:100BF000012D112DC701BDD0682F81508E3F80F48B
:100C000070E080E090E09B6B502F4F2D3E2D22270F
:100C1000622B732B842B952B7EDA80E197E224DA0A
:100C20000894E11CF11C011D111D8FEFE816F10461
:100C300001051105F9F66091620070E080E090E036
:100C4000CB01772766276F6F75609B6B64DA80E155
:100C500097E20ADA60916B0070E080E090E09B6BB5
:100C60002091620030E040E050E0A90133272227C4
:100C7000622B732B842B952B2091630030E040E096
:100C800050E0542F432F322F2227622B732B842BBB
:100C9000952B41DA74DA89B7826089BFC0E0D0E071
:100CA00000E010E060DEC80169E470E04FD0892BFD
:100CB00019F4CE0160DD21968091620090E08F7082
:100CC0009070845A9F4FD0D90F5F1F4F82E00A3D2A
:100CD000180741F7809172009091730001969093EC
:100CE00073008093720059CF5527002480FF02C003
:100CF000060E571F660F771F6115710521F0969537
:100D00008795009799F7952F802D0895991B79E085
:100D100004C0991F961708F0961B881F7A95C9F78B
:100D200080950895AA1BBB1B51E107C0AA1FBB1FDA
:100D3000A617B70710F0A61BB70B881F991F5A9567
:100D4000A9F780959095BC01CD01089597FB092ED8
:100D500007260AD077FD04D0E5DF06D000201AF47C
:100D6000709561957F4F0895F6F7909581959F4F07
:100D70000895E199FECF1FBA8EBBE09A99278DB3F3
:100D80000895262FE199FECF1CBA1FBA8EBB2DBB4A
:100D90000FB6F894E29AE19A0FBE01960895F8947E
:020DA000FFCF83
:080DA2000101FF010151A10054
:00000001FF
